{
  "contractName": "Migrations",
  "abi": [
    {
      "inputs": [],
      "name": "last_migration",
      "outputs": [
        {
          "internalType": "uint256",
          "name": "",
          "type": "uint256"
        }
      ],
      "stateMutability": "view",
      "type": "function"
    },
    {
      "inputs": [],
      "name": "owner",
      "outputs": [
        {
          "internalType": "address",
          "name": "",
          "type": "address"
        }
      ],
      "stateMutability": "view",
      "type": "function"
    },
    {
      "inputs": [
        {
          "internalType": "uint256",
          "name": "completed",
          "type": "uint256"
        }
      ],
      "name": "completedMigration",
      "outputs": [],
      "stateMutability": "nonpayable",
      "type": "function"
    }
  ],
  "bytecode": "0x6080604052600080546001600160a01b0319163317905534801561002257600080fd5b5061017a806100326000396000f3fe608060405234801561001057600080fd5b50600436106100415760003560e01c80630205e44a14610046578063735bbf63146100625780638da5cb5b14610077575b600080fd5b61004f60015481565b6040519081526020015b60405180910390f35b61007561007036600461012b565b6100a2565b005b60005461008a906001600160a01b031681565b6040516001600160a01b039091168152602001610059565b6000546001600160a01b031633146101265760405162461bcd60e51b815260206004820152603860248201527f4572726f723a20746869732066756e6374696f6e20697320726573747269637460448201527f656420746f2074686520636f6e7472616374206f776e65720000000000000000606482015260840160405180910390fd5b600155565b60006020828403121561013d57600080fd5b503591905056fea2646970667358221220be218b1a7a6d2f3bd37099fbf36fd7a66ba4613fd57a17b6166633e3e6f70ee964736f6c63430008110033",
  "immutableReferences": {},
  "source": "// SPDX-License-Identifier: UNLICENSED\npragma solidity ^0.8.0;\n\ncontract Migrations {\n      address public owner = msg.sender;\n      uint public last_migration;\n\n      modifier restricted() {\n            require(msg.sender == owner, \"Error: this function is restricted to the contract owner\");\n            _;    // check first\n      }\n\n      function completedMigration(uint completed) public restricted {\n            last_migration = completed;\n      }\n}",
  "sourcePath": "/Users/nerdpower/Library/Mobile Documents/com~apple~CloudDocs/CloudStorage/Ethereum_Projects/2981_NFT_Royalty/royal_marketplace/contracts/Migrations.sol",
  "compiler": {
    "name": "solc",
    "version": "0.8.17+commit.8df45f5f.Emscripten.clang"
  },
  "schemaVersion": "3.4.10",
  "updatedAt": "2022-11-11T03:00:10.916Z",
  "devdoc": {
    "kind": "dev",
    "methods": {},
    "version": 1
  },
  "userdoc": {
    "kind": "user",
    "methods": {},
    "version": 1
  }
}