{
  "contractName": "RoyalMarketplace",
  "abi": [
    {
      "anonymous": false,
      "inputs": [
        {
          "indexed": false,
          "internalType": "bytes32",
          "name": "encoded",
          "type": "bytes32"
        },
        {
          "indexed": true,
          "internalType": "address",
          "name": "collection",
          "type": "address"
        },
        {
          "indexed": false,
          "internalType": "uint256",
          "name": "token_id",
          "type": "uint256"
        },
        {
          "indexed": true,
          "internalType": "address",
          "name": "owner",
          "type": "address"
        }
      ],
      "name": "OnSale",
      "type": "event"
    },
    {
      "anonymous": false,
      "inputs": [
        {
          "indexed": true,
          "internalType": "address",
          "name": "collection",
          "type": "address"
        },
        {
          "indexed": false,
          "internalType": "uint256",
          "name": "token_id",
          "type": "uint256"
        },
        {
          "indexed": false,
          "internalType": "address",
          "name": "buyer",
          "type": "address"
        },
        {
          "indexed": false,
          "internalType": "uint256",
          "name": "price",
          "type": "uint256"
        }
      ],
      "name": "Sold",
      "type": "event"
    },
    {
      "inputs": [
        {
          "internalType": "bytes32",
          "name": "",
          "type": "bytes32"
        }
      ],
      "name": "offers",
      "outputs": [
        {
          "internalType": "contract IERC721",
          "name": "collection",
          "type": "address"
        },
        {
          "internalType": "uint256",
          "name": "token_id",
          "type": "uint256"
        },
        {
          "internalType": "uint256",
          "name": "priceInWei",
          "type": "uint256"
        }
      ],
      "stateMutability": "view",
      "type": "function"
    },
    {
      "inputs": [
        {
          "internalType": "contract IERC721",
          "name": "collection",
          "type": "address"
        },
        {
          "internalType": "uint256",
          "name": "token_id",
          "type": "uint256"
        },
        {
          "internalType": "uint256",
          "name": "priceInWei",
          "type": "uint256"
        }
      ],
      "name": "sellNFT",
      "outputs": [],
      "stateMutability": "nonpayable",
      "type": "function"
    },
    {
      "inputs": [
        {
          "internalType": "bytes32",
          "name": "encoded",
          "type": "bytes32"
        }
      ],
      "name": "buyNFT",
      "outputs": [],
      "stateMutability": "payable",
      "type": "function"
    }
  ],
  "bytecode": "0x6080604052600280546001600160a01b03191673e7c9cb6d966f76f3b5142167088927bf34966a1f17905534801561003657600080fd5b506001600055610b3d8061004b6000396000f3fe6080604052600436106100345760003560e01c80631711846914610039578063474d3ff01461004e578063f779a193146100be575b600080fd5b61004c610047366004610887565b6100de565b005b34801561005a57600080fd5b50610095610069366004610887565b60016020819052600091825260409091208054918101546002909101546001600160a01b039092169183565b604080516001600160a01b03909416845260208401929092529082015260600160405180910390f35b3480156100ca57600080fd5b5061004c6100d93660046108b5565b610468565b6100e6610710565b600081815260016020818152604092839020835160608101855281546001600160a01b03168082529382015492810192909252600201549281019290925261016e5760405162461bcd60e51b8152602060048201526016602482015275115c9c9bdc8e881bd999995c881b9bdd08199bdd5b9960521b60448201526064015b60405180910390fd5b80604001513410156101ce5760405162461bcd60e51b8152602060048201526024808201527f4572726f723a2063757272656e742072657365727665207072696365206e6f74604482015263081b595d60e21b6064820152608401610165565b805160208201516040516331a9108f60e11b815260048101919091526000916001600160a01b031690636352211e90602401602060405180830381865afa15801561021d573d6000803e3d6000fd5b505050506040513d601f19601f8201168201806040525081019061024191906108ea565b8251602080850151604080870151815192835233938301939093528101919091529192506001600160a01b0316907f5320a7a9b87f79d5f7316ef1338262f16072733cc053d083f0cd2018928ded649060600160405180910390a2600083815260016020818152604080842080546001600160a01b0319168155928301849055600292830184905591548551918601519251637a99dc0160e11b81526001600160a01b0392831660048201526024810193909352346044840152839291169063f533b802906064016000604051808303816000875af1158015610328573d6000803e3d6000fd5b505050506040513d6000823e601f3d908101601f1916820160405261035091908101906109e4565b6040860151919350915060005b83518110156103db5782818151811061037857610378610aa9565b60200260200101518261038b9190610ad5565b91506103c98482815181106103a2576103a2610aa9565b60200260200101518483815181106103bc576103bc610aa9565b6020026020010151610769565b806103d381610aee565b91505061035d565b506103e68482610769565b84516020860151604051632142170760e11b81526001600160a01b03878116600483015233602483015260448201929092529116906342842e0e90606401600060405180830381600087803b15801561043e57600080fd5b505af1158015610452573d6000803e3d6000fd5b5050505050505050506104656001600055565b50565b6040516331a9108f60e11b81526004810183905233906001600160a01b03851690636352211e90602401602060405180830381865afa1580156104af573d6000803e3d6000fd5b505050506040513d601f19601f820116820180604052508101906104d391906108ea565b6001600160a01b03161461054f5760405162461bcd60e51b815260206004820152603760248201527f4572726f723a20596f75206d75737420626520746865206f776e6572206f662060448201527f7468697320636f6c6c656374696f6e20746f2073656c6c0000000000000000006064820152608401610165565b60405163020604bf60e21b81526004810183905230906001600160a01b0385169063081812fc90602401602060405180830381865afa158015610596573d6000803e3d6000fd5b505050506040513d601f19601f820116820180604052508101906105ba91906108ea565b6001600160a01b0316146106365760405162461bcd60e51b815260206004820152603760248201527f4572726f723a204d75737420626520617070726f766564207072696f7220746f60448201527f2073656c6c696e67206f6e206d61726b6574706c6163650000000000000000006064820152608401610165565b6040516bffffffffffffffffffffffff19606085901b1660208201526034810183905260009060540160408051808303601f1901815282825280516020918201206060840183526001600160a01b038881168086528386018981528686018981526000858152600180885290889020985189546001600160a01b03191695169490941788559051928701929092559051600290950194909455825181815291820187905293503392917fa5613045a519d2f7110f9423c03ca87795968868a843374d7a85b01ad31921c3910160405180910390a350505050565b6002600054036107625760405162461bcd60e51b815260206004820152601f60248201527f5265656e7472616e637947756172643a207265656e7472616e742063616c6c006044820152606401610165565b6002600055565b804710156107b95760405162461bcd60e51b815260206004820152601d60248201527f416464726573733a20696e73756666696369656e742062616c616e63650000006044820152606401610165565b6000826001600160a01b03168260405160006040518083038185875af1925050503d8060008114610806576040519150601f19603f3d011682016040523d82523d6000602084013e61080b565b606091505b50509050806108825760405162461bcd60e51b815260206004820152603a60248201527f416464726573733a20756e61626c6520746f2073656e642076616c75652c207260448201527f6563697069656e74206d617920686176652072657665727465640000000000006064820152608401610165565b505050565b60006020828403121561089957600080fd5b5035919050565b6001600160a01b038116811461046557600080fd5b6000806000606084860312156108ca57600080fd5b83356108d5816108a0565b95602085013595506040909401359392505050565b6000602082840312156108fc57600080fd5b8151610907816108a0565b9392505050565b634e487b7160e01b600052604160045260246000fd5b604051601f8201601f1916810167ffffffffffffffff8111828210171561094d5761094d61090e565b604052919050565b600067ffffffffffffffff82111561096f5761096f61090e565b5060051b60200190565b600082601f83011261098a57600080fd5b8151602061099f61099a83610955565b610924565b82815260059290921b840181019181810190868411156109be57600080fd5b8286015b848110156109d957805183529183019183016109c2565b509695505050505050565b600080604083850312156109f757600080fd5b825167ffffffffffffffff80821115610a0f57600080fd5b818501915085601f830112610a2357600080fd5b81516020610a3361099a83610955565b82815260059290921b84018101918181019089841115610a5257600080fd5b948201945b83861015610a79578551610a6a816108a0565b82529482019490820190610a57565b91880151919650909350505080821115610a9257600080fd5b50610a9f85828601610979565b9150509250929050565b634e487b7160e01b600052603260045260246000fd5b634e487b7160e01b600052601160045260246000fd5b81810381811115610ae857610ae8610abf565b92915050565b600060018201610b0057610b00610abf565b506001019056fea264697066735822122092b25f83f7eab901acaaf46faef4de2b120fa79ea1a6f94a2d6784f83ff70e4f64736f6c63430008110033",
  "immutableReferences": {},
  "source": "// SPDX-License-Identifier: UNLICENSED\npragma solidity ^0.8.0;\n\nimport \"@manifoldxyz/royalty-registry-solidity/contracts/IRoyaltyEngineV1.sol\";\nimport \"@openzeppelin/contracts/utils/Address.sol\";\nimport \"@openzeppelin/contracts/security/ReentrancyGuard.sol\";\nimport \"@openzeppelin/contracts/token/ERC721/IERC721.sol\";\nimport \"@openzeppelin/contracts/token/common/ERC2981.sol\";\n\n\nstruct Offer {\n  IERC721 collection;\n  uint256 token_id;\n  uint256 priceInWei;\n}\n\ncontract RoyalMarketplace is ReentrancyGuard{\n      mapping(bytes32 => Offer) public offers;\n\n      // https://royaltyregistry.xyz/lookup\n      IRoyaltyEngineV1 royaltyEngineGoerli = IRoyaltyEngineV1(0xe7c9Cb6D966f76f3B5142167088927Bf34966a1f);\n      \n      event OnSale(bytes32 encoded, address indexed collection, uint256 token_id, address indexed owner);\n      event Sold(address indexed collection, uint256 token_id, address buyer, uint256 price);\n\n        // Sell NFT \n        function sellNFT(IERC721 collection, uint256 token_id, uint256 priceInWei) public {\n              require(collection.ownerOf(token_id) == msg.sender, \"Error: You must be the owner of this collection to sell\");\n              require(collection.getApproved(token_id) == address(this), \"Error: Must be approved prior to selling on marketplace\");\n              \n              bytes32 encoded = keccak256(abi.encodePacked(collection, token_id));\n              \n              offers[encoded] = Offer({\n                  collection: collection,\n                  token_id: token_id,\n                  priceInWei: priceInWei\n              });\n              emit OnSale(encoded, address(collection), token_id, msg.sender);\n        }\n\n        // Buy NFT\n        function buyNFT(bytes32 encoded) public payable nonReentrant  {\n              Offer memory offer = offers[encoded];\n\n              require(address(offer.collection) != address(0x0), \"Error: offer not found\");\n              require(msg.value >= offer.priceInWei, \"Error: current reserve price not met\");\n\n              address payable owner = payable(offer.collection.ownerOf(offer.token_id));\n\n              emit Sold(address(offer.collection), offer.token_id, msg.sender, offer.priceInWei);\n\n              // clear offer from offers listing since it's sold\n              delete offers[encoded];\n\n              (address payable[] memory recipients, uint256[] memory total) = royaltyEngineGoerli.getRoyalty(address(offer.collection), offer.token_id, msg.value);\n              uint256 amountToSeller = offer.priceInWei;\n\n              // transfer royalties\n              for(uint i = 0; i < recipients.length; i++) {\n                    amountToSeller = amountToSeller - total[i];\n                    Address.sendValue(recipients[i], total[i]);\n              }\n\n              // transfer remaining  revenue to seller \n              Address.sendValue(owner, amountToSeller);\n\n              // safely transfer nft\n              offer.collection.safeTransferFrom(owner, msg.sender, offer.token_id);\n        }\n\n}\n",
  "sourcePath": "/Users/nerdpower/Library/Mobile Documents/com~apple~CloudDocs/CloudStorage/Ethereum_Projects/2981_NFT_Royalty/royal_marketplace/contracts/RoyalMarketplace.sol",
  "compiler": {
    "name": "solc",
    "version": "0.8.17+commit.8df45f5f.Emscripten.clang"
  },
  "schemaVersion": "3.4.10",
  "updatedAt": "2022-11-11T03:00:10.920Z",
  "devdoc": {
    "kind": "dev",
    "methods": {},
    "version": 1
  },
  "userdoc": {
    "kind": "user",
    "methods": {},
    "version": 1
  }
}